{
  "_format": "hh-sol-artifact-1",
  "contractName": "OnchainSIP",
  "sourceName": "contracts/OnchainSIP.sol",
  "abi": [
    {
      "anonymous": false,
      "inputs": [
        {
          "indexed": true,
          "internalType": "address",
          "name": "user",
          "type": "address"
        },
        {
          "indexed": false,
          "internalType": "string",
          "name": "pool",
          "type": "string"
        },
        {
          "indexed": false,
          "internalType": "uint256",
          "name": "total",
          "type": "uint256"
        },
        {
          "indexed": false,
          "internalType": "uint256",
          "name": "intervalAmount",
          "type": "uint256"
        }
      ],
      "name": "PlanCreated",
      "type": "event"
    },
    {
      "anonymous": false,
      "inputs": [
        {
          "indexed": true,
          "internalType": "address",
          "name": "user",
          "type": "address"
        },
        {
          "indexed": false,
          "internalType": "string",
          "name": "pool",
          "type": "string"
        },
        {
          "indexed": false,
          "internalType": "uint256",
          "name": "amount",
          "type": "uint256"
        },
        {
          "indexed": false,
          "internalType": "uint256",
          "name": "time",
          "type": "uint256"
        }
      ],
      "name": "SIPExecuted",
      "type": "event"
    },
    {
      "anonymous": false,
      "inputs": [
        {
          "indexed": true,
          "internalType": "address",
          "name": "user",
          "type": "address"
        },
        {
          "indexed": false,
          "internalType": "string",
          "name": "pool",
          "type": "string"
        },
        {
          "indexed": false,
          "internalType": "uint256",
          "name": "remainingAmount",
          "type": "uint256"
        }
      ],
      "name": "SIPFinalized",
      "type": "event"
    },
    {
      "inputs": [
        {
          "internalType": "string",
          "name": "pool",
          "type": "string"
        },
        {
          "internalType": "address",
          "name": "token",
          "type": "address"
        },
        {
          "internalType": "uint256",
          "name": "totalAmount",
          "type": "uint256"
        },
        {
          "internalType": "uint256",
          "name": "amountPerInterval",
          "type": "uint256"
        },
        {
          "internalType": "uint256",
          "name": "frequency",
          "type": "uint256"
        },
        {
          "internalType": "uint256",
          "name": "maturity",
          "type": "uint256"
        },
        {
          "internalType": "address",
          "name": "destAddress",
          "type": "address"
        }
      ],
      "name": "createPlan",
      "outputs": [],
      "stateMutability": "nonpayable",
      "type": "function"
    },
    {
      "inputs": [
        {
          "internalType": "string",
          "name": "pool",
          "type": "string"
        },
        {
          "internalType": "uint256",
          "name": "amountPerInterval",
          "type": "uint256"
        },
        {
          "internalType": "uint256",
          "name": "frequency",
          "type": "uint256"
        },
        {
          "internalType": "uint256",
          "name": "maturity",
          "type": "uint256"
        },
        {
          "internalType": "address",
          "name": "destAddress",
          "type": "address"
        }
      ],
      "name": "createPlanWithNative",
      "outputs": [],
      "stateMutability": "payable",
      "type": "function"
    },
    {
      "inputs": [
        {
          "internalType": "string",
          "name": "pool",
          "type": "string"
        }
      ],
      "name": "executeSIP",
      "outputs": [],
      "stateMutability": "nonpayable",
      "type": "function"
    },
    {
      "inputs": [
        {
          "internalType": "string",
          "name": "pool",
          "type": "string"
        }
      ],
      "name": "finalizeSIP",
      "outputs": [],
      "stateMutability": "nonpayable",
      "type": "function"
    },
    {
      "inputs": [
        {
          "internalType": "address",
          "name": "user",
          "type": "address"
        },
        {
          "internalType": "string",
          "name": "pool",
          "type": "string"
        }
      ],
      "name": "getPlan",
      "outputs": [
        {
          "components": [
            {
              "internalType": "address",
              "name": "token",
              "type": "address"
            },
            {
              "internalType": "uint256",
              "name": "totalAmount",
              "type": "uint256"
            },
            {
              "internalType": "uint256",
              "name": "amountPerInterval",
              "type": "uint256"
            },
            {
              "internalType": "uint256",
              "name": "frequency",
              "type": "uint256"
            },
            {
              "internalType": "uint256",
              "name": "nextExecution",
              "type": "uint256"
            },
            {
              "internalType": "uint256",
              "name": "maturity",
              "type": "uint256"
            },
            {
              "internalType": "address",
              "name": "destAddress",
              "type": "address"
            },
            {
              "internalType": "uint256",
              "name": "executedAmount",
              "type": "uint256"
            },
            {
              "internalType": "bool",
              "name": "active",
              "type": "bool"
            }
          ],
          "internalType": "struct OnchainSIP.SIPPlan",
          "name": "",
          "type": "tuple"
        }
      ],
      "stateMutability": "view",
      "type": "function"
    },
    {
      "inputs": [
        {
          "internalType": "address",
          "name": "",
          "type": "address"
        },
        {
          "internalType": "string",
          "name": "",
          "type": "string"
        }
      ],
      "name": "userPlans",
      "outputs": [
        {
          "internalType": "address",
          "name": "token",
          "type": "address"
        },
        {
          "internalType": "uint256",
          "name": "totalAmount",
          "type": "uint256"
        },
        {
          "internalType": "uint256",
          "name": "amountPerInterval",
          "type": "uint256"
        },
        {
          "internalType": "uint256",
          "name": "frequency",
          "type": "uint256"
        },
        {
          "internalType": "uint256",
          "name": "nextExecution",
          "type": "uint256"
        },
        {
          "internalType": "uint256",
          "name": "maturity",
          "type": "uint256"
        },
        {
          "internalType": "address",
          "name": "destAddress",
          "type": "address"
        },
        {
          "internalType": "uint256",
          "name": "executedAmount",
          "type": "uint256"
        },
        {
          "internalType": "bool",
          "name": "active",
          "type": "bool"
        }
      ],
      "stateMutability": "view",
      "type": "function"
    },
    {
      "stateMutability": "payable",
      "type": "receive"
    }
  ],
  "bytecode": "0x608060405234801561001057600080fd5b50611e51806100206000396000f3fe6080604052600436106100595760003560e01c806326960399146100655780638d4a81df146100aa5780639c701852146100d3578063b1af51fe146100fc578063bb60fb6114610125578063e1dc1c041461016257610060565b3661006057005b600080fd5b34801561007157600080fd5b5061008c600480360381019061008791906112f1565b61017e565b6040516100a199989796959493929190611390565b60405180910390f35b3480156100b657600080fd5b506100d160048036038101906100cc919061141d565b61023c565b005b3480156100df57600080fd5b506100fa60048036038101906100f5919061141d565b610556565b005b34801561010857600080fd5b50610123600480360381019061011e9190611492565b610784565b005b34801561013157600080fd5b5061014c600480360381019061014791906112f1565b610ba7565b6040516101599190611634565b60405180910390f35b61017c60048036038101906101779190611650565b610d20565b005b600060205281600052604060002081805160208101820180518482526020830160208501208183528095505050505050600091509150508060000160009054906101000a900473ffffffffffffffffffffffffffffffffffffffff16908060010154908060020154908060030154908060040154908060050154908060060160009054906101000a900473ffffffffffffffffffffffffffffffffffffffff16908060070154908060080160009054906101000a900460ff16905089565b60008060003373ffffffffffffffffffffffffffffffffffffffff1673ffffffffffffffffffffffffffffffffffffffff1681526020019081526020016000208260405161028a9190611758565b908152602001604051809103902090508060080160009054906101000a900460ff166102eb576040517f08c379a00000000000000000000000000000000000000000000000000000000081526004016102e2906117cc565b60405180910390fd5b8060050154421015610332576040517f08c379a000000000000000000000000000000000000000000000000000000000815260040161032990611838565b60405180910390fd5b6000816007015482600101546103489190611887565b905060008111156104e457600073ffffffffffffffffffffffffffffffffffffffff168260000160009054906101000a900473ffffffffffffffffffffffffffffffffffffffff1673ffffffffffffffffffffffffffffffffffffffff160361041b578160060160009054906101000a900473ffffffffffffffffffffffffffffffffffffffff1673ffffffffffffffffffffffffffffffffffffffff166108fc829081150290604051600060405180830381858888f19350505050158015610415573d6000803e3d6000fd5b506104e3565b8160000160009054906101000a900473ffffffffffffffffffffffffffffffffffffffff1673ffffffffffffffffffffffffffffffffffffffff1663a9059cbb8360060160009054906101000a900473ffffffffffffffffffffffffffffffffffffffff16836040518363ffffffff1660e01b815260040161049e9291906118bb565b6020604051808303816000875af11580156104bd573d6000803e3d6000fd5b505050506040513d601f19601f820116820180604052508101906104e19190611910565b505b5b60008260080160006101000a81548160ff0219169083151502179055503373ffffffffffffffffffffffffffffffffffffffff167f66e36758d41ded8f2c95ad644d556ae54da53d52a680324e8bcc39604b9a1b8a8483604051610549929190611976565b60405180910390a2505050565b60008060003373ffffffffffffffffffffffffffffffffffffffff1673ffffffffffffffffffffffffffffffffffffffff168152602001908152602001600020826040516105a49190611758565b908152602001604051809103902090508060080160009054906101000a900460ff16610605576040517f08c379a00000000000000000000000000000000000000000000000000000000081526004016105fc906117cc565b60405180910390fd5b806004015442101561064c576040517f08c379a0000000000000000000000000000000000000000000000000000000008152600401610643906119f2565b60405180910390fd5b80600501544210610692576040517f08c379a000000000000000000000000000000000000000000000000000000000815260040161068990611a5e565b60405180910390fd5b8060010154816002015482600701546106ab9190611a7e565b11156106ec576040517f08c379a00000000000000000000000000000000000000000000000000000000081526004016106e390611afe565b60405180910390fd5b80600201548160070160008282546107049190611a7e565b9250508190555080600301548160040160008282546107239190611a7e565b925050819055503373ffffffffffffffffffffffffffffffffffffffff167f93bda7f33b44f5cf749215d10244c31bd281fd30e6121fe5413000cb536555ce8383600201544260405161077893929190611b1e565b60405180910390a25050565b68056bc75e2d631000008510156107d0576040517f08c379a00000000000000000000000000000000000000000000000000000000081526004016107c790611ba8565b60405180910390fd5b6729a2241af62c000084101561081b576040517f08c379a000000000000000000000000000000000000000000000000000000000815260040161081290611c14565b60405180910390fd5b81421061085d576040517f08c379a000000000000000000000000000000000000000000000000000000000815260040161085490611c80565b60405180910390fd5b6000803373ffffffffffffffffffffffffffffffffffffffff1673ffffffffffffffffffffffffffffffffffffffff168152602001908152602001600020876040516108a99190611758565b908152602001604051809103902060080160009054906101000a900460ff1615610908576040517f08c379a00000000000000000000000000000000000000000000000000000000081526004016108ff90611cec565b60405180910390fd5b8573ffffffffffffffffffffffffffffffffffffffff166323b872dd3330886040518463ffffffff1660e01b815260040161094593929190611d0c565b6020604051808303816000875af1158015610964573d6000803e3d6000fd5b505050506040513d601f19601f820116820180604052508101906109889190611910565b506040518061012001604052808773ffffffffffffffffffffffffffffffffffffffff16815260200186815260200185815260200184815260200184426109cf9190611a7e565b81526020018381526020018273ffffffffffffffffffffffffffffffffffffffff16815260200160008152602001600115158152506000803373ffffffffffffffffffffffffffffffffffffffff1673ffffffffffffffffffffffffffffffffffffffff16815260200190815260200160002088604051610a509190611758565b908152602001604051809103902060008201518160000160006101000a81548173ffffffffffffffffffffffffffffffffffffffff021916908373ffffffffffffffffffffffffffffffffffffffff1602179055506020820151816001015560408201518160020155606082015181600301556080820151816004015560a0820151816005015560c08201518160060160006101000a81548173ffffffffffffffffffffffffffffffffffffffff021916908373ffffffffffffffffffffffffffffffffffffffff16021790555060e082015181600701556101008201518160080160006101000a81548160ff0219169083151502179055509050503373ffffffffffffffffffffffffffffffffffffffff167f556a0bebba476da0fa3492879f700767ff831ebd9881db3bc2f077544d0c97f7888787604051610b9693929190611b1e565b60405180910390a250505050505050565b610baf6110bf565b6000808473ffffffffffffffffffffffffffffffffffffffff1673ffffffffffffffffffffffffffffffffffffffff16815260200190815260200160002082604051610bfb9190611758565b9081526020016040518091039020604051806101200160405290816000820160009054906101000a900473ffffffffffffffffffffffffffffffffffffffff1673ffffffffffffffffffffffffffffffffffffffff1673ffffffffffffffffffffffffffffffffffffffff16815260200160018201548152602001600282015481526020016003820154815260200160048201548152602001600582015481526020016006820160009054906101000a900473ffffffffffffffffffffffffffffffffffffffff1673ffffffffffffffffffffffffffffffffffffffff1673ffffffffffffffffffffffffffffffffffffffff168152602001600782015481526020016008820160009054906101000a900460ff161515151581525050905092915050565b6702c68af0bb140000341015610d6b576040517f08c379a0000000000000000000000000000000000000000000000000000000008152600401610d6290611d8f565b60405180910390fd5b661550f7dca70000841015610db5576040517f08c379a0000000000000000000000000000000000000000000000000000000008152600401610dac90611dfb565b60405180910390fd5b814210610df7576040517f08c379a0000000000000000000000000000000000000000000000000000000008152600401610dee90611c80565b60405180910390fd5b6000803373ffffffffffffffffffffffffffffffffffffffff1673ffffffffffffffffffffffffffffffffffffffff16815260200190815260200160002085604051610e439190611758565b908152602001604051809103902060080160009054906101000a900460ff1615610ea2576040517f08c379a0000000000000000000000000000000000000000000000000000000008152600401610e9990611cec565b60405180910390fd5b604051806101200160405280600073ffffffffffffffffffffffffffffffffffffffff1681526020013481526020018581526020018481526020018442610ee99190611a7e565b81526020018381526020018273ffffffffffffffffffffffffffffffffffffffff16815260200160008152602001600115158152506000803373ffffffffffffffffffffffffffffffffffffffff1673ffffffffffffffffffffffffffffffffffffffff16815260200190815260200160002086604051610f6a9190611758565b908152602001604051809103902060008201518160000160006101000a81548173ffffffffffffffffffffffffffffffffffffffff021916908373ffffffffffffffffffffffffffffffffffffffff1602179055506020820151816001015560408201518160020155606082015181600301556080820151816004015560a0820151816005015560c08201518160060160006101000a81548173ffffffffffffffffffffffffffffffffffffffff021916908373ffffffffffffffffffffffffffffffffffffffff16021790555060e082015181600701556101008201518160080160006101000a81548160ff0219169083151502179055509050503373ffffffffffffffffffffffffffffffffffffffff167f556a0bebba476da0fa3492879f700767ff831ebd9881db3bc2f077544d0c97f78634876040516110b093929190611b1e565b60405180910390a25050505050565b604051806101200160405280600073ffffffffffffffffffffffffffffffffffffffff1681526020016000815260200160008152602001600081526020016000815260200160008152602001600073ffffffffffffffffffffffffffffffffffffffff168152602001600081526020016000151581525090565b6000604051905090565b600080fd5b600080fd5b600073ffffffffffffffffffffffffffffffffffffffff82169050919050565b60006111788261114d565b9050919050565b6111888161116d565b811461119357600080fd5b50565b6000813590506111a58161117f565b92915050565b600080fd5b600080fd5b6000601f19601f8301169050919050565b7f4e487b7100000000000000000000000000000000000000000000000000000000600052604160045260246000fd5b6111fe826111b5565b810181811067ffffffffffffffff8211171561121d5761121c6111c6565b5b80604052505050565b6000611230611139565b905061123c82826111f5565b919050565b600067ffffffffffffffff82111561125c5761125b6111c6565b5b611265826111b5565b9050602081019050919050565b82818337600083830152505050565b600061129461128f84611241565b611226565b9050828152602081018484840111156112b0576112af6111b0565b5b6112bb848285611272565b509392505050565b600082601f8301126112d8576112d76111ab565b5b81356112e8848260208601611281565b91505092915050565b6000806040838503121561130857611307611143565b5b600061131685828601611196565b925050602083013567ffffffffffffffff81111561133757611336611148565b5b611343858286016112c3565b9150509250929050565b6113568161116d565b82525050565b6000819050919050565b61136f8161135c565b82525050565b60008115159050919050565b61138a81611375565b82525050565b6000610120820190506113a6600083018c61134d565b6113b3602083018b611366565b6113c0604083018a611366565b6113cd6060830189611366565b6113da6080830188611366565b6113e760a0830187611366565b6113f460c083018661134d565b61140160e0830185611366565b61140f610100830184611381565b9a9950505050505050505050565b60006020828403121561143357611432611143565b5b600082013567ffffffffffffffff81111561145157611450611148565b5b61145d848285016112c3565b91505092915050565b61146f8161135c565b811461147a57600080fd5b50565b60008135905061148c81611466565b92915050565b600080600080600080600060e0888a0312156114b1576114b0611143565b5b600088013567ffffffffffffffff8111156114cf576114ce611148565b5b6114db8a828b016112c3565b97505060206114ec8a828b01611196565b96505060406114fd8a828b0161147d565b955050606061150e8a828b0161147d565b945050608061151f8a828b0161147d565b93505060a06115308a828b0161147d565b92505060c06115418a828b01611196565b91505092959891949750929550565b6115598161116d565b82525050565b6115688161135c565b82525050565b61157781611375565b82525050565b610120820160008201516115946000850182611550565b5060208201516115a7602085018261155f565b5060408201516115ba604085018261155f565b5060608201516115cd606085018261155f565b5060808201516115e0608085018261155f565b5060a08201516115f360a085018261155f565b5060c082015161160660c0850182611550565b5060e082015161161960e085018261155f565b5061010082015161162e61010085018261156e565b50505050565b60006101208201905061164a600083018461157d565b92915050565b600080600080600060a0868803121561166c5761166b611143565b5b600086013567ffffffffffffffff81111561168a57611689611148565b5b611696888289016112c3565b95505060206116a78882890161147d565b94505060406116b88882890161147d565b93505060606116c98882890161147d565b92505060806116da88828901611196565b9150509295509295909350565b600081519050919050565b600081905092915050565b60005b8381101561171b578082015181840152602081019050611700565b60008484015250505050565b6000611732826116e7565b61173c81856116f2565b935061174c8185602086016116fd565b80840191505092915050565b60006117648284611727565b915081905092915050565b600082825260208201905092915050565b7f4e6f206163746976652053495000000000000000000000000000000000000000600082015250565b60006117b6600d8361176f565b91506117c182611780565b602082019050919050565b600060208201905081810360008301526117e5816117a9565b9050919050565b7f4e6f74206d617475726564000000000000000000000000000000000000000000600082015250565b6000611822600b8361176f565b915061182d826117ec565b602082019050919050565b6000602082019050818103600083015261185181611815565b9050919050565b7f4e487b7100000000000000000000000000000000000000000000000000000000600052601160045260246000fd5b60006118928261135c565b915061189d8361135c565b92508282039050818111156118b5576118b4611858565b5b92915050565b60006040820190506118d0600083018561134d565b6118dd6020830184611366565b9392505050565b6118ed81611375565b81146118f857600080fd5b50565b60008151905061190a816118e4565b92915050565b60006020828403121561192657611925611143565b5b6000611934848285016118fb565b91505092915050565b6000611948826116e7565b611952818561176f565b93506119628185602086016116fd565b61196b816111b5565b840191505092915050565b60006040820190508181036000830152611990818561193d565b905061199f6020830184611366565b9392505050565b7f546f6f206561726c790000000000000000000000000000000000000000000000600082015250565b60006119dc60098361176f565b91506119e7826119a6565b602082019050919050565b60006020820190508181036000830152611a0b816119cf565b9050919050565b7f4d61747572656400000000000000000000000000000000000000000000000000600082015250565b6000611a4860078361176f565b9150611a5382611a12565b602082019050919050565b60006020820190508181036000830152611a7781611a3b565b9050919050565b6000611a898261135c565b9150611a948361135c565b9250828201905080821115611aac57611aab611858565b5b92915050565b7f416c6c2066756e64732075736564000000000000000000000000000000000000600082015250565b6000611ae8600e8361176f565b9150611af382611ab2565b602082019050919050565b60006020820190508181036000830152611b1781611adb565b9050919050565b60006060820190508181036000830152611b38818661193d565b9050611b476020830185611366565b611b546040830184611366565b949350505050565b7f4d696e696d756d20746f74616c20616d6f756e74206973202431303000000000600082015250565b6000611b92601c8361176f565b9150611b9d82611b5c565b602082019050919050565b60006020820190508181036000830152611bc181611b85565b9050919050565b7f4d696e696d756d20696e74657276616c20616d6f756e74206973202433000000600082015250565b6000611bfe601d8361176f565b9150611c0982611bc8565b602082019050919050565b60006020820190508181036000830152611c2d81611bf1565b9050919050565b7f4d61747572697479206d75737420626520696e20667574757265000000000000600082015250565b6000611c6a601a8361176f565b9150611c7582611c34565b602082019050919050565b60006020820190508181036000830152611c9981611c5d565b9050919050565b7f53495020616c7265616479206578697374730000000000000000000000000000600082015250565b6000611cd660128361176f565b9150611ce182611ca0565b602082019050919050565b60006020820190508181036000830152611d0581611cc9565b9050919050565b6000606082019050611d21600083018661134d565b611d2e602083018561134d565b611d3b6040830184611366565b949350505050565b7f4d696e696d756d20746f74616c20697320302e322074424e4200000000000000600082015250565b6000611d7960198361176f565b9150611d8482611d43565b602082019050919050565b60006020820190508181036000830152611da881611d6c565b9050919050565b7f496e74657276616c20746f6f20736d616c6c0000000000000000000000000000600082015250565b6000611de560128361176f565b9150611df082611daf565b602082019050919050565b60006020820190508181036000830152611e1481611dd8565b905091905056fea2646970667358221220048cf754e01fd1c066d9a2645778179cb6946dd6c115af1bb97a1f1cfc83446b64736f6c63430008140033",
  "linkReferences": {},
  "deployedLinkReferences": {}
}